:100000000C9462000C948A000C948A000C948A0070
:100010000C948A000C948A000C948A000C948A0038
:100020000C948A000C948A000C948A000C948A0028
:100030000C948A000C948A000C948A000C948A0018
:100040000C941C060C948A000C948C060C94660686
:100050000C948A000C948A000C948A000C948A00F8
:100060000C948A000C948A000000000023002600F3
:10007000290000000000240027002A0000000000E2
:10008000250028002B0004040404040404040202D4
:100090000202020203030303030301020408102007
:1000A0004080010204081020010204081020000012
:1000B0000008000201000003040700000000000027
:1000C0000000030711241FBECFEFD8E0DEBFCDBF75
:1000D00011E0A0E0B1E0ECECFEE102C005900D9271
:1000E000A23EB107D9F723E0A2EEB1E001C01D9214
:1000F000A032B207E1F710E0C2E6D0E004C02197D9
:10010000FE010E943C0FC136D107C9F70E94AC071F
:100110000C94640F0C9400000F931F93CF93DF9304
:10012000C091EB02ECEEF2E0CD3211F0EBEEF2E03A
:100130008F0120E030E0A901D801DD918D0180ED33
:100140008D0F8A3090F4AAE0B0E00E94420F2D2F6C
:10015000DD0F330B440B550B260F371F481F591F5C
:100160002053310941095109E7CFA4E6B0E00E94CC
:10017000420FAB01BC01DF01819190ED980F9A30E5
:10018000D0F38E3259F511968C91119790ED980F0E
:100190009A3020F5082E000C990BC0972AE0289F72
:1001A0008001299F100D1124012E000C220B330B0E
:1001B000400F511F621F731F12968C9190ED980F84
:1001C0009A3060F4082E000C990BC097092E000C91
:1001D000AA0BBB0B480F591F6A1F7B1FCD3239F486
:1001E00070956095509541955F4F6F4F7F4FCB0154
:1001F000BA01DF91CF911F910F9108954F925F92B5
:100200006F927F928F929F92AF92BF92CF92DF9226
:10021000EF92FF921F93CF93DF93CBEED2E0FE01DC
:10022000C12CD12C7601119180ED810F8A30A8F478
:10023000AAE0B0E0A70196010E94420FC12E110F63
:10024000DD08EE08FF08C60ED71EE81EF91E80E383
:10025000C81AD108E108F108E6CFC701B60124E6C3
:1002600030E040E050E00E941A0F9B01AC0160EAD0
:1002700076E881E090E00E940A0F4B015C019E014C
:10028000899190ED980F9A30D0F38E3221F5E901E3
:10029000219680E1482E87E2582E612C712CA9917D
:1002A00080ED8A0F8A30B8F40A2E000CBB0BD09771
:1002B000A30192010E944D0F860E971EA81EB91E23
:1002C000C301B2012AE030E040E050E00E941A0F82
:1002D00029013A01E4CFC701B60124E630E040E04D
:1002E00050E00E941A0F60E472E48FE090E00E94F8
:1002F0000A0F6B017C01C501B4016D5F7F4F8F4F09
:100300009F4F26E030E040E050E00E941A0FC70106
:10031000B601620F731F841F951FDF91CF911F914C
:10032000FF90EF90DF90CF90BF90AF909F908F9015
:100330007F906F905F904F900895833081F028F404
:10034000813099F08230A9F008958730A9F0883083
:10035000C9F08430B1F4809180008F7D03C080911A
:1003600080008F7780938000089584B58F7784BD57
:10037000089584B58F7DFBCF8091B0008F778093F7
:10038000B00008958091B0008F7DF9CF1F93CF9377
:10039000DF93282F30E0F901E255FF4F8491F901F6
:1003A000E656FF4FD491F901EA57FF4FC491CC2391
:1003B000A9F0162F81110E949D01EC2FF0E0EE0FA5
:1003C000FF1FE458FF4FA591B4918FB7F894EC91BB
:1003D000111108C0D095DE23DC938FBFDF91CF9140
:1003E0001F910895DE2BF8CFCF93DF9390E0FC01AF
:1003F000E656FF4F24918A579F4FFC018491882332
:10040000D1F090E0880F991FFC01EE58FF4FA591A5
:10041000B491FC01E458FF4FC591D49161110EC015
:100420009FB7F8948C91E22FE0958E238C932881CE
:10043000E223E8839FBFDF91CF9108958FB7F894AF
:10044000EC91E22BEC938FBFF6CF3FB7F8948091FD
:10045000F4019091F501A091F601B091F70126B554
:10046000A89B05C02F3F19F00196A11DB11D3FBFEC
:10047000BA2FA92F982F8827BC01CD01620F711DBB
:10048000811D911D42E0660F771F881F991F4A95B5
:10049000D1F708958F929F92AF92BF92CF92DF9241
:1004A000EF92FF924B015C010E9425026B017C01DF
:1004B0000E9425026C197D098E099F09683E7340D0
:1004C00081059105A8F321E0821A9108A108B108DD
:1004D00088EEC80E83E0D81EE11CF11C8114910443
:1004E000A104B10429F7FF90EF90DF90CF90BF9067
:1004F000AF909F908F900895AF92BF92CF92DF926E
:10050000EF92FF920F931F93CF93DF936C017B01C8
:100510008B01040F151FEB015E01AE18BF08C01759
:10052000D10759F06991D601ED91FC910190F081CC
:10053000E02DC6010995892B79F7C501DF91CF918F
:100540001F910F91FF90EF90DF90CF90BF90AF90F1
:100550000895FC01538D448D252F30E0842F90E0C9
:10056000821B930B541710F0CF96089501970895AE
:10057000FC01918D828D981761F0A28DAE0FBF2F77
:10058000B11D5D968C91928D9F5F9F73928F90E0CD
:1005900008958FEF9FEF0895FC01918D828D98173C
:1005A00031F0828DE80FF11D858D90E008958FEF79
:1005B0009FEF0895FC01918D228D892F90E0805C42
:1005C0009F4F821B91098F739927089588EF91E0BF
:1005D0000E94DA0221E0892B09F420E0822F08959D
:1005E00080E090E0892B29F00E94E60281110C94B2
:1005F00000000895FC01A48DA80FB92FB11DA35AC6
:10060000BF4F2C91848D90E001968F739927848F32
:10061000A689B7892C93A089B1898C918370806455
:100620008C93938D848D981306C00288F389E02DF6
:1006300080818F7D80830895EF92FF920F931F93A7
:10064000CF93DF93EC0181E0888F9B8D8C8D981385
:100650001AC0E889F989808185FF15C09FB7F89491
:10066000EE89FF896083E889F989808183708064DD
:1006700080839FBF81E090E0DF91CF911F910F9128
:10068000FF90EF900895F62E0B8D10E00F5F1F4F37
:100690000F731127E02E8C8D8E110CC00FB607FC46
:1006A000FACFE889F989808185FFF5CFCE010E94D4
:1006B000FA02F1CFEB8DEC0FFD2FF11DE35AFF4F46
:1006C000F0829FB7F8940B8FEA89FB898081806262
:1006D000CFCFCF93DF93EC01888D8823B9F0AA891F
:1006E000BB89E889F9898C9185FD03C0808186FDED
:1006F0000DC00FB607FCF7CF8C9185FFF2CF80813C
:1007000085FFEDCFCE010E94FA02E9CFDF91CF91B4
:100710000895089590E080E00895CF93DF93EC0171
:1007200060E08E810E94C60161E08E810E94C60158
:1007300060E08E810E94C6018BE891E00197F1F79D
:10074000DF91CF910895CF92DF92EF92FF920F93B6
:100750001F93CF93DF936C017C0187E0E80EF11CBF
:10076000D0E0C0E0062F10E0B8010C2E02C0759555
:1007700067950A94E2F76170F70181917F010E9409
:10078000C6012196C430D10579F7C601DF91CF911A
:100790001F910F91FF90EF90DF90CF900C948D03FD
:1007A000CF92DF92EF92FF920F931F93CF93DF933D
:1007B000EC01F62E642F8C810E94C6018D818F3F43
:1007C00019F060E00E94C6010F2D10E08F8584FFB4
:1007D00025C06E0187E0C80ED11CF12CE12CB801B8
:1007E0000E2C02C0759567950A94E2F76170F601C8
:1007F00081916F010E94C601FFEFEF1AFF0A88E0A6
:10080000E816F10461F7CE01DF91CF911F910F91AE
:10081000FF90EF90DF90CF900C948D03B80184E0AF
:10082000759567958A95E1F7CE010E94A3036F2D18
:10083000CE01DF91CF911F910F91FF90EF90DF904C
:10084000CF900C94A30340E0682F88E093E00C94D1
:10085000D00381E00E9423048BE39FE10197F1F72D
:100860000895CF93DF93823029F490911703986015
:100870009093170380931B0310921C0380E48093D2
:100880001D0380E180931E0380E580931F0361E0D8
:1008900080910C030E94F40180910D038F3F19F0A9
:1008A00061E00E94F40161E080910E030E94F40176
:1008B000C8E0D3E09E01285033408091170384FDA7
:1008C0000BC084E090E021962817390744F461E0DA
:1008D0008E810E94F401EECF88E090E0F4CF8BE3AC
:1008E0009DE00197F1F760E080910C030E94C60142
:1008F00060E080910E030E94C60180910D038F3F3E
:1009000019F060E00E94C6018091170384FD34C095
:1009100063E088E093E00E94A303CBE4D6E4CE0139
:100920000197F1F763E088E093E00E94A303219729
:10093000F1F763E088E093E00E94A30383E592E08F
:100940000197F1F762E088E093E00E94A3038091B1
:10095000170380620E94230484E0809318038CE0D4
:100960000E9423040E94290482E08093190386E0F8
:10097000DF91CF910C94230480620E9423048BE4C6
:1009800096E40197F1F78091170380620E94230497
:1009900083E592E00197F1F78091170380620E944E
:1009A0002304D5CF41E00E94D00381E090E0089578
:1009B000FB0101900020E9F73197AF01461B570B6F
:1009C000DC01ED91FC910280F381E02D09948F927E
:1009D0009F92AF92BF920F931F93CF93DF93CDB7A8
:1009E000DEB7A1970FB6F894DEBF0FBECDBF19A238
:1009F000423008F44AE08E010F5D1F4F842E912C87
:100A0000B12CA12CA50194010E941A0FE62FB90167
:100A1000CA01EA3004F5E05DD801EE938D01232B85
:100A2000242B252B79F790E080E0109729F0BD0169
:100A300088EF91E00E94D804A1960FB6F894DEBF2B
:100A40000FBECDBFDF91CF911F910F91BF90AF909F
:100A50009F908F900895E95CDFCFCF93DF93BC0127
:100A600088EF91E00E94D804EC016EE171E088EF1C
:100A700091E00E94D8048C0F9D1FDF91CF910895C3
:100A80004F925F926F927F928F929F92AF92BF929E
:100A9000CF92DF92EF92FF920F931F93CF936B0150
:100AA0007C01742EAC019B010E94050F61E271E094
:100AB000811126C046015701E894B7F82FEF3FEFA8
:100AC0004FE75FE7C501B4010E94050F81110CC01B
:100AD0002FEF3FEF4FE75FE7C501B4010E94340DF0
:100AE00065E271E0181664F02FEF3FEF4FE75FE427
:100AF000C701B6010E94930E1816ACF469E271E0CA
:100B000088EF91E0CF911F910F91FF90EF90DF90D0
:100B1000CF90BF90AF909F908F907F906F905F909D
:100B20004F900C94D8042FEF3FEF4FE75FECC701D5
:100B3000B6010E94340D87FDE1CF20E030E0A9012D
:100B4000C701B6010E94340D10E000E087FF0AC023
:100B50006DE288EF91E00E941C038C01F7FAF0949B
:100B6000F7F8F094C0E060E070E080E09FE37C166E
:100B700041F020E030E040E251E40E94390DCF5FC7
:100B8000F6CFA70196010E94C80C2B013C010E94E0
:100B9000B20D4B015C014AE00E94E7047C01E00ECB
:100BA000F11ECC23C1F1C501B4010E94E10D9B01EE
:100BB000AC01C301B2010E94C70C4B015C016EE2A3
:100BC00088EF91E00E941C03E80EF91EC15018F155
:100BD00020E030E040E251E4C501B4010E94980EEB
:100BE0002B013C010E94B20D4B01B12CA12C4AE01B
:100BF000C501B4010E94E704E80EF91EC501B40165
:100C00000E94E10D9B01AC01C301B2010E94C70C1F
:100C10004B015C01DBCFC701CF911F910F91FF907A
:100C2000EF90DF90CF90BF90AF909F908F907F908C
:100C30006F905F904F9008951F920F920FB60F9292
:100C400011242F933F938F939F93AF93BF938091E2
:100C5000F0019091F101A091F201B091F301309176
:100C6000EF0123E0230F2D3758F50196A11DB11D8B
:100C70002093EF018093F0019093F101A093F20192
:100C8000B093F3018091F4019091F501A091F601E8
:100C9000B091F7010196A11DB11D8093F4019093CD
:100CA000F501A093F601B093F701BF91AF919F9129
:100CB0008F913F912F910F900FBE0F901F9018951D
:100CC00026E8230F0296A11DB11DD2CF1F920F92CD
:100CD0000FB60F9211242F933F934F935F936F930F
:100CE0007F938F939F93AF93BF93EF93FF9388EF7F
:100CF00091E00E94FA02FF91EF91BF91AF919F9115
:100D00008F917F916F915F914F913F912F910F90B4
:100D10000FBE0F901F9018951F920F920FB60F9253
:100D200011242F938F939F93EF93FF93E0910802E9
:100D3000F09109028081E0910E02F0910F0282FD94
:100D40001BC09081809111028F5F8F7320911202DE
:100D5000821741F0E0911102F0E0E850FE4F958FCC
:100D600080931102FF91EF919F918F912F910F909E
:100D70000FBE0F901F9018958081F4CFCF92DF9215
:100D8000EF92FF920F931F93E82FF92F05C00150A8
:100D900011092109310961F1908196239417B9F362
:100DA00005C0015011092109310911F190819623E3
:100DB0009413F7CFC12CD12CE12CF12C0AC08FEF6A
:100DC000C81AD80AE80AF80A0C151D052E053F05B1
:100DD00079F080818623841791F36C2D7D2D8E2DE3
:100DE0009F2D1F910F91FF90EF90DF90CF9008956E
:100DF00060E070E080E090E01F910F91FF90EF9035
:100E0000DF90CF900895E8EFF1E01382128288EE30
:100E100093E0A0E0B0E084839583A683B78384E069
:100E200091E09183808385EC90E09587848784ECC2
:100E300090E09787868780EC90E0918B808B81ECA7
:100E400090E0938B828B82EC90E0958B848B86EC88
:100E500090E0978B868B118E128E138E148EE8E0A5
:100E6000F3E01382128286E191E09183808384E033
:100E700084838FEF858385E0868386E0878387E0A0
:100E8000808788E0818789E08287138614861586AB
:100E90001686178681E00E943104E5E9F2E04FEF03
:100EA0005FEFBA014083518362837383108611869A
:100EB000128613868FEF99ECAAE9BBE3808B918BA6
:100EC000A28BB38B808F918FA28FB38F80A391A3BE
:100ED000A2A3B3A380A791A7A2A7B3A780AB91AB0E
:100EE000A2ABB3AB40AF51AF62AF73AF8FEF90E047
:100EF0009093D6028093D5024093D9025093DA02A0
:100F00006093DB027093DC024093E1025093E202B3
:100F10006093E3027093E4021092E9021092EA02F5
:100F200082E08093FA021092FB021092FC0210926F
:100F3000FD021092FE021092FF0210920003109226
:100F40000103109203031092020310920503109202
:100F500004031092EB020895789484B5826084BDF6
:100F600084B5816084BD85B5826085BD85B58160AD
:100F700085BD80916E00816080936E00109281002B
:100F800080918100826080938100809181008160E6
:100F900080938100809180008160809380008091A7
:100FA000B10084608093B1008091B0008160809333
:100FB000B00080917A00846080937A0080917A00FA
:100FC000826080937A0080917A00816080937A00B9
:100FD00080917A00806880937A001092C10061E06D
:100FE00082E00E94F40160E08CE00E94F40161E084
:100FF0008AE00E94F40160E08BE00E94F401E0913D
:101000000802F091090282E08083E0910402F091ED
:1010100005021082E0910602F09107028FEC8083B6
:1010200010921002E0910C02F0910D0286E0808394
:10103000E0910A02F0910B02808180618083E0914F
:101040000A02F0910B02808188608083E0910A029D
:10105000F0910B02808180688083E0910A02F09118
:101060000B0280818F7D808382E00E9431040E9488
:1010700029046DE271E088E093E00E94D804E091D9
:101080001B03E33008F03AC1E150F0E0E85FFC4FA9
:1010900084898D5F80680E94230460E471E088E0A9
:1010A00093E00E94D80464EF71E080E090E00E9439
:1010B0004A0261E082E00E94C60168EC70E080E0D4
:1010C00090E00E944A020E94290467E471E088E0EF
:1010D00093E00E94D80464EF71E080E090E00E9409
:1010E0004A0256EA252E50E0352EC2E9D0E063E0F0
:1010F000E62EF12C73E2C72ED12CE5EAAE2EE0E00D
:10110000BE2EF1E98F2EF0E09F2EEAEBF0E0849105
:10111000F1011491FE017490772079F081110E9401
:101120009D01E72DF0E0EE0FFF1FE859FF4FA5915D
:10113000B4918C91182381E009F480E08170809350
:10114000EE0164E670E080E090E00E944A0260E018
:101150008AE00E94C601C7010197F1F761E08AE0C9
:101160000E94C601C6010197F1F760E08AE00E9483
:10117000C601F5016491F4018491E82FF0E0EE0FCF
:10118000FF1FE859FF4F8591949100E412E42FE08E
:1011900030E0462F0E94BE0661157105810591055C
:1011A00029F06F5F7F4F8F4F9F4F9F709595879569
:1011B000779567950E94E30D2DEC3CEC48EE51E4E9
:1011C0000E94390D0E94AB0D2B013C014092EA01B7
:1011D0005092EB016092EC017092ED0164E670E0D8
:1011E00080E090E00E944A028091EE01882309F499
:1011F0008CCFF5E04F165104610471040CF085CFDB
:1012000064E670E080E090E00E944A0260E082E0E4
:101210000E94C60164E670E080E090E00E944A020D
:101220000E94290467E571E088E093E00E94D804F9
:10123000E0911B03E33008F063C0E150F0E0E85FA9
:10124000FC4F84898D5F80680E94230469E671E009
:1012500088E093E00E94D80464EF71E080E090E0C1
:101260000E944A0285E791E00E942D0564E670E045
:1012700080E090E00E944A028FE791E00E942D05F5
:1012800064E670E080E090E00E944A0288E991E024
:101290000E942D058BEA91E00E942D05D2E011E01D
:1012A00088EF91E00E94DA02892BD1F388EF91E078
:1012B0000E94B802C82F8091FE029091FF02A09177
:1012C0000003B09101030196A11DB11D8093FE02A0
:1012D0009093FF02A0930003B0930103C43209F47A
:1012E00009C3E091FC02C5326CF4CA3019F0CD306C
:1012F00009F00DC3EF3088F0F12CD0C0E2E0C5CE8C
:10130000E2E09CCFCA32B1F3CC3209F000C3809145
:10131000E9028C278093E902EDCF9091FB02F0E087
:10132000E551FD4F1082F090EA02FF2009F49DC1C3
:101330002091EB02822F022E000C990B3FEB320F13
:10134000363008F01EC1C7978295807F9091EC02DD
:10135000292F092E000C330B4FEB490F463008F0B4
:1013600018C127533109820F9091E902891373C183
:10137000F090FD02FF2009F4BFCF8091020390910D
:101380000303019690930303809302038091DD028F
:101390009091DE02A091DF02B091E0028093D90229
:1013A0009093DA02A093DB02B093DC028091E50215
:1013B0009091E602A091E702B091E8028093E102E9
:1013C0009093E202A093E302B093E4028091FA02C8
:1013D000882309F4E7C0813009F060C08091990248
:1013E00090919A02A0919B02B0919C0280939502E9
:1013F00090939602A0939702B09398028091A102D5
:101400009091A202A091A302B091A40280939D02A8
:1014100090939E02A0939F02B093A0028091A90294
:101420009091AA02A091AB02B091AC028093A50268
:101430009093A602A093A702B093A8028091B10254
:101440009091B202A091B302B091B4028093AD0228
:101450009093AE02A093AF02B093B0028091C1020C
:101460009091C202A091C302B091C4028093BD02C8
:101470009093BE02A093BF02B093C0028091C902B4
:101480009091CA02A091CB02B091CC028093C50288
:101490009093C602A093C702B093C8028091FB024A
:1014A0008F5F8093FB021092FC0281E0CA3209F048
:1014B00080E08093EA02FF2009F4F2CE8091A50239
:1014C0009091A602A091A702B091A8028093E60194
:1014D0009093E701A093E801B093E9018091AD02F8
:1014E0009091AE02A091AF02B091B0028093E20160
:1014F0009093E301A093E401B093E5018DEC91E0BA
:101500000E942D0568ED71E088EF91E00E94D804FB
:101510006091E6017091E7018091E8019091E90105
:101520000E94E30D2DEB37E346E855E30E94980E49
:1015300048E00E9440056EE171E088EF91E00E9472
:10154000D8046DED71E088EF91E00E94D8046091BD
:10155000E2017091E3018091E4019091E5010E9424
:10156000E30D2DEB37E346E855E30E94980E48E083
:101570000E9440056EE171E088EF91E00E94D8047E
:101580009ACE2156263018F487559109DDCEC097A2
:10159000DBCE9156963018F427553109E4CE20530E
:1015A0003109E1CE8091B9029091BA02A091BB02BB
:1015B000B091BC028093B5029093B602A093B7029B
:1015C000B093B8028091990290919A02A0919B02E7
:1015D000B0919C028093950290939602A0939702FB
:1015E000B09398028091A9029091AA02A091AB02B7
:1015F000B091AC028093A5029093A602A093A7029B
:10160000B093A8028091B1029091B202A091B3026E
:10161000B091B4028093AD029093AE02A093AF025A
:10162000B093B0028091D7029091D8029093D602E5
:101630008093D5028091D1029091D202A091D302E1
:10164000B091D4028093CD029093CE02A093CF02AA
:10165000B093D00223CF80910403909105030196AB
:10166000909305038093040347CE91111CC0ABEE09
:10167000B2E041EC51E09D01F90181919F01882385
:1016800009F459C1FA019191AF018917A9F3E7EC67
:10169000F1E08D91882309F451C191918917C9F323
:1016A000D093FA02FBCEE091FA02E23009F424CEA4
:1016B0008091EB02882309F41FCE20E2E29FF00123
:1016C0001124E92B3197E932F10508F0E7CEE5590D
:1016D000F44F0C943C0FB10BD50BF30B0E0C190C03
:1016E000530C5A0C640C6F0C4E0A4E0A4E0A4E0AEA
:1016F0004E0A4E0A4E0A4E0A4E0A4E0A4E0A4E0A2A
:101700004E0A4E0A4E0A4E0A4E0A4E0A4E0A4E0A19
:101710004E0A4E0A4E0AB10BCF0BD50BF30B0E0C33
:10172000190C340C3F0C940BEBEEF2E020E030E0AF
:10173000A901019180ED800F8A3008F0ABC0AAE0CA
:10174000B0E00E94420F202F000F330B440B550BCB
:10175000260F371F481F591F2053310941095109CE
:10176000E8CF0E948C006093990270939A02809354
:101770009B0290939C022FB7F8948091F001909176
:10178000F101A091F201B091F3012FBF8093DD022E
:101790009093DE02A093DF02B093E0027FCE91E04F
:1017A000813409F484C090E082C00E94FE006093FE
:1017B000A9027093AA028093AB029093AC022FB758
:1017C000F8948091F0019091F101A091F201B09113
:1017D000F3012FBF8093E5029093E602A093E70206
:1017E000B093E8025BCE833509F086CD8091A902E3
:1017F0009091AA02A091AB02B091AC02B095A095D5
:10180000909581959F4FAF4FBF4F8093A9029093C2
:10181000AA02A093AB02B093AC0240CE0E94FE009D
:101820006093B1027093B2028093B3029093B402BA
:1018300035CE873509F060CD8091B1029091B2022A
:10184000A091B302B091B402B095A0959095819506
:101850009F4FAF4FBF4F8093B1029093B202A093BE
:10186000B302B093B4021ACE0E948C006093C102FE
:101870007093C2028093C3029093C4020FCE0E9461
:101880008C006093C9027093CA028093CB0290933C
:10189000CC0204CE2093A1023093A2024093A30273
:1018A0005093A402FBCD91E081330CF47CCF909354
:1018B000FD02F4CD8BEE92E00E94A10C992790934B
:1018C000D8028093D702EACD0E948C006093D102A7
:1018D0007093D2028093D3029093D402DFCD0E9402
:1018E0008C006093B9027093BA028093BB0290930C
:1018F000BC02D4CD1092FC021092FB021092E902BD
:10190000D093FA021092EA021092FD02C9CCEE3096
:1019100040F481E08E0F8093FC02F0E0E551FD4F32
:10192000C0838091EA028111BBCC8091E902C82773
:10193000C093E902B5CC1093FA02B0CD1092FA022E
:10194000ADCDFC0188279927E89421912032E9F355
:10195000293010F02E30C8F32B3241F02D3239F4FB
:10196000689404C00E94BF0C820F911D21912053E6
:101970002A30C0F31EF4909581959F4F08957AE028
:10198000979F902D879F802D910D11240895505879
:10199000BB27AA270E94DF0C0C94590E0E944B0E05
:1019A00038F00E94520E20F039F49F3F19F426F4CB
:1019B0000C94480E0EF4E095E7FB0C94420EE92FD0
:1019C0000E946A0E58F3BA176207730784079507D7
:1019D00020F079F4A6F50C948C0E0EF4E0950B2E05
:1019E000BA2FA02D0B01B90190010C01CA01A00171
:1019F0001124FF27591B99F0593F50F4503E68F1CC
:101A00001A16F040A22F232F342F4427585FF3CF0C
:101A1000469537952795A795F0405395C9F77EF4DD
:101A20001F16BA0B620B730B840BBAF09150A1F026
:101A3000FF0FBB1F661F771F881FC2F70EC0BA0FAC
:101A4000621F731F841F48F4879577956795B79534
:101A5000F7959E3F08F0B0CF9395880F08F099272F
:101A6000EE0F9795879508950E941E0E08F481E069
:101A700008950E944D0D0C94590E0E94520E58F07C
:101A80000E944B0E40F029F45F3F29F00C94420E67
:101A900051110C948D0E0C94480E0E946A0E68F33E
:101AA0009923B1F3552391F3951B550BBB27AA2717
:101AB00062177307840738F09F5F5F4F220F331F51
:101AC000441FAA1FA9F335D00E2E3AF0E0E832D019
:101AD00091505040E695001CCAF72BD0FE2F29D01C
:101AE000660F771F881FBB1F261737074807AB07EE
:101AF000B0E809F0BB0B802DBF01FF2793585F4F63
:101B00003AF09E3F510578F00C94420E0C948D0EE5
:101B10005F3FE4F3983ED4F3869577956795B79544
:101B2000F7959F5FC9F7880F911D9695879597F94F
:101B30000895E1E0660F771F881FBB1F62177307C8
:101B40008407BA0720F0621B730B840BBA0BEE1FDD
:101B500088F7E09508950E94B20D6894B1110C9435
:101B60008D0E08950E94720E88F09F5798F0B92F3D
:101B70009927B751B0F0E1F0660F771F881F991FC2
:101B80001AF0BA95C9F714C0B13091F00E948C0ECA
:101B9000B1E008950C948C0E672F782F8827B85FDA
:101BA00039F0B93FCCF3869577956795B395D9F71A
:101BB0003EF490958095709561957F4F8F4F9F4F24
:101BC0000895E89409C097FB3EF490958095709530
:101BD00061957F4F8F4F9F4F9923A9F0F92F96E979
:101BE000BB279395F695879577956795B795F111EE
:101BF000F8CFFAF4BB0F11F460FF1BC06F5F7F4F8B
:101C00008F4F9F4F16C0882311F096E911C077239C
:101C100021F09EE8872F762F05C0662371F096E8A5
:101C2000862F70E060E02AF09A95660F771F881F74
:101C3000DAF7880F9695879597F90895990F000818
:101C4000550FAA0BE0E8FEEF16161706E807F9078E
:101C5000C0F012161306E407F50798F0621B730B29
:101C6000840B950B39F40A2661F0232B242B252BAA
:101C700021F408950A2609F4A140A6958FEF811D4D
:101C8000811D089597F99F6780E870E060E00895EE
:101C90009FEF80EC089500240A9416161706180684
:101CA0000906089500240A94121613061406050660
:101CB0000895092E0394000C11F4882352F0BB0FF1
:101CC00040F4BF2B11F460FF04C06F5F7F4F8F4F54
:101CD0009F4F089557FD9058440F551F59F05F3F8F
:101CE00071F04795880F97FB991F61F09F3F79F03E
:101CF00087950895121613061406551FF2CF4695C0
:101D0000F1DF08C0161617061806991FF1CF869541
:101D10007105610508940895E894BB276627772725
:101D2000CB0197F908950E941E0E08F48FEF0895D5
:101D30000E94AB0E0C94590E0E944B0E38F00E947C
:101D4000520E20F0952311F00C94420E0C94480E84
:101D500011240C948D0E0E946A0E70F3959FC1F3AE
:101D6000950F50E0551F629FF001729FBB27F00D49
:101D7000B11D639FAA27F00DB11DAA1F649F66279E
:101D8000B00DA11D661F829F2227B00DA11D621FED
:101D9000739FB00DA11D621F839FA00D611D221FA7
:101DA000749F3327A00D611D231F849F600D211D8B
:101DB000822F762F6A2F11249F5750409AF0F1F00E
:101DC00088234AF0EE0FFF1FBB1F661F771F881F77
:101DD00091505040A9F79E3F510580F00C94420E5F
:101DE0000C948D0E5F3FE4F3983ED4F3869577957F
:101DF0006795B795F795E7959F5FC1F7FE2B880F1D
:101E0000911D9695879597F908950E941E0E880B4F
:101E1000990B0895DB018F939F930E94420FBF910E
:101E2000AF91A29F800D911DA39F900DB29F900D29
:101E300011240895A1E21A2EAA1BBB1BFD010DC09F
:101E4000AA1FBB1FEE1FFF1FA217B307E407F5076A
:101E500020F0A21BB30BE40BF50B661F771F881F46
:101E6000991F1A9469F760957095809590959B01DC
:101E7000AC01BD01CF010895EE0FFF1F0590F49155
:101E8000E02D09940E94550FA59F900DB49F900DD1
:101E9000A49F800D911D11240895B7FF0C94420F4B
:101EA0000E94420F821B930B0895A29FB001B39F23
:101EB000C001A39F700D811D1124911DB29F700D53
:0C1EC000811D1124911D0895F894FFCF9E
:101ECC00000000001C037C02A9026903DA02B802BC
:101EDC00CC0200000000D2047C028A0389030D0AA4
:101EEC00006E616E00696E66006F7666004143435A
:101EFC004944454E5420444554454354494F4E00A3
:101F0C0053595354454D0056656869636C652053AD
:101F1C00746172746564004163636964656E7420F6
:101F2C0044657465637465640053656E64696E67BB
:101F3C00204D73670041542B434D47463D310041C2
:101F4C00542B434D47533D222B39313939323235DD
:101F5C003132303137220D004163636964656E7430
:101F6C002044657465637465642000706C656173EE
:101F7C006520636865636B206C6F636174696F6E59
:101F8C00004750524D4300475047474100506F7334
:101F9C006974696F6E3A20006C61743A006C6F67FB
:021FAC003A00F9
:00000001FF
